{
  "contractName": "SupplyChain",
  "abi": [
    {
      "inputs": [],
      "stateMutability": "payable",
      "type": "constructor",
      "payable": true
    },
    {
      "anonymous": false,
      "inputs": [
        {
          "indexed": true,
          "internalType": "address",
          "name": "account",
          "type": "address"
        }
      ],
      "name": "ConsumerAdded",
      "type": "event"
    },
    {
      "anonymous": false,
      "inputs": [
        {
          "indexed": true,
          "internalType": "address",
          "name": "account",
          "type": "address"
        }
      ],
      "name": "ConsumerRemoved",
      "type": "event"
    },
    {
      "anonymous": false,
      "inputs": [
        {
          "indexed": true,
          "internalType": "address",
          "name": "account",
          "type": "address"
        }
      ],
      "name": "DistributorAdded",
      "type": "event"
    },
    {
      "anonymous": false,
      "inputs": [
        {
          "indexed": true,
          "internalType": "address",
          "name": "account",
          "type": "address"
        }
      ],
      "name": "DistributorRemoved",
      "type": "event"
    },
    {
      "anonymous": false,
      "inputs": [
        {
          "indexed": true,
          "internalType": "address",
          "name": "account",
          "type": "address"
        }
      ],
      "name": "FarmerAdded",
      "type": "event"
    },
    {
      "anonymous": false,
      "inputs": [
        {
          "indexed": true,
          "internalType": "address",
          "name": "account",
          "type": "address"
        }
      ],
      "name": "FarmerRemoved",
      "type": "event"
    },
    {
      "anonymous": false,
      "inputs": [
        {
          "indexed": false,
          "internalType": "uint256",
          "name": "upc",
          "type": "uint256"
        }
      ],
      "name": "ForSale",
      "type": "event"
    },
    {
      "anonymous": false,
      "inputs": [
        {
          "indexed": false,
          "internalType": "uint256",
          "name": "upc",
          "type": "uint256"
        }
      ],
      "name": "Harvested",
      "type": "event"
    },
    {
      "anonymous": false,
      "inputs": [
        {
          "indexed": true,
          "internalType": "address",
          "name": "previousOwner",
          "type": "address"
        },
        {
          "indexed": true,
          "internalType": "address",
          "name": "newOwner",
          "type": "address"
        }
      ],
      "name": "OwnershipTransferred",
      "type": "event"
    },
    {
      "anonymous": false,
      "inputs": [
        {
          "indexed": false,
          "internalType": "uint256",
          "name": "upc",
          "type": "uint256"
        }
      ],
      "name": "Packed",
      "type": "event"
    },
    {
      "anonymous": false,
      "inputs": [
        {
          "indexed": false,
          "internalType": "uint256",
          "name": "upc",
          "type": "uint256"
        }
      ],
      "name": "Processed",
      "type": "event"
    },
    {
      "anonymous": false,
      "inputs": [
        {
          "indexed": false,
          "internalType": "uint256",
          "name": "upc",
          "type": "uint256"
        }
      ],
      "name": "Purchased",
      "type": "event"
    },
    {
      "anonymous": false,
      "inputs": [
        {
          "indexed": false,
          "internalType": "uint256",
          "name": "upc",
          "type": "uint256"
        }
      ],
      "name": "Received",
      "type": "event"
    },
    {
      "anonymous": false,
      "inputs": [
        {
          "indexed": true,
          "internalType": "address",
          "name": "account",
          "type": "address"
        }
      ],
      "name": "RetailerAdded",
      "type": "event"
    },
    {
      "anonymous": false,
      "inputs": [
        {
          "indexed": true,
          "internalType": "address",
          "name": "account",
          "type": "address"
        }
      ],
      "name": "RetailerRemoved",
      "type": "event"
    },
    {
      "anonymous": false,
      "inputs": [
        {
          "indexed": false,
          "internalType": "uint256",
          "name": "upc",
          "type": "uint256"
        }
      ],
      "name": "Shipped",
      "type": "event"
    },
    {
      "anonymous": false,
      "inputs": [
        {
          "indexed": false,
          "internalType": "uint256",
          "name": "upc",
          "type": "uint256"
        }
      ],
      "name": "Sold",
      "type": "event"
    },
    {
      "inputs": [
        {
          "internalType": "address",
          "name": "account",
          "type": "address"
        }
      ],
      "name": "addConsumer",
      "outputs": [],
      "stateMutability": "nonpayable",
      "type": "function"
    },
    {
      "inputs": [
        {
          "internalType": "address",
          "name": "account",
          "type": "address"
        }
      ],
      "name": "addDistributor",
      "outputs": [],
      "stateMutability": "nonpayable",
      "type": "function"
    },
    {
      "inputs": [
        {
          "internalType": "address",
          "name": "account",
          "type": "address"
        }
      ],
      "name": "addFarmer",
      "outputs": [],
      "stateMutability": "nonpayable",
      "type": "function"
    },
    {
      "inputs": [
        {
          "internalType": "address",
          "name": "account",
          "type": "address"
        }
      ],
      "name": "addRetailer",
      "outputs": [],
      "stateMutability": "nonpayable",
      "type": "function"
    },
    {
      "inputs": [
        {
          "internalType": "address",
          "name": "account",
          "type": "address"
        }
      ],
      "name": "isConsumer",
      "outputs": [
        {
          "internalType": "bool",
          "name": "",
          "type": "bool"
        }
      ],
      "stateMutability": "view",
      "type": "function",
      "constant": true
    },
    {
      "inputs": [
        {
          "internalType": "address",
          "name": "account",
          "type": "address"
        }
      ],
      "name": "isDistributor",
      "outputs": [
        {
          "internalType": "bool",
          "name": "",
          "type": "bool"
        }
      ],
      "stateMutability": "view",
      "type": "function",
      "constant": true
    },
    {
      "inputs": [
        {
          "internalType": "address",
          "name": "account",
          "type": "address"
        }
      ],
      "name": "isFarmer",
      "outputs": [
        {
          "internalType": "bool",
          "name": "",
          "type": "bool"
        }
      ],
      "stateMutability": "view",
      "type": "function",
      "constant": true
    },
    {
      "inputs": [
        {
          "internalType": "address",
          "name": "account",
          "type": "address"
        }
      ],
      "name": "isRetailer",
      "outputs": [
        {
          "internalType": "bool",
          "name": "",
          "type": "bool"
        }
      ],
      "stateMutability": "view",
      "type": "function",
      "constant": true
    },
    {
      "inputs": [],
      "name": "owner",
      "outputs": [
        {
          "internalType": "address",
          "name": "",
          "type": "address"
        }
      ],
      "stateMutability": "view",
      "type": "function",
      "constant": true
    },
    {
      "inputs": [],
      "name": "renounceConsumer",
      "outputs": [],
      "stateMutability": "nonpayable",
      "type": "function"
    },
    {
      "inputs": [],
      "name": "renounceDistributor",
      "outputs": [],
      "stateMutability": "nonpayable",
      "type": "function"
    },
    {
      "inputs": [],
      "name": "renounceFarmer",
      "outputs": [],
      "stateMutability": "nonpayable",
      "type": "function"
    },
    {
      "inputs": [],
      "name": "renounceOwnership",
      "outputs": [],
      "stateMutability": "nonpayable",
      "type": "function"
    },
    {
      "inputs": [],
      "name": "renounceRetailer",
      "outputs": [],
      "stateMutability": "nonpayable",
      "type": "function"
    },
    {
      "inputs": [
        {
          "internalType": "address",
          "name": "newOwner",
          "type": "address"
        }
      ],
      "name": "transferOwnership",
      "outputs": [],
      "stateMutability": "nonpayable",
      "type": "function"
    },
    {
      "inputs": [],
      "name": "close",
      "outputs": [],
      "stateMutability": "nonpayable",
      "type": "function"
    },
    {
      "inputs": [
        {
          "internalType": "uint256",
          "name": "_upc",
          "type": "uint256"
        },
        {
          "internalType": "address",
          "name": "_farmerID",
          "type": "address"
        },
        {
          "internalType": "string",
          "name": "_farmerName",
          "type": "string"
        },
        {
          "internalType": "string",
          "name": "_farmerInformation",
          "type": "string"
        },
        {
          "internalType": "string",
          "name": "_farmerLatitude",
          "type": "string"
        },
        {
          "internalType": "string",
          "name": "_farmerLongitude",
          "type": "string"
        },
        {
          "internalType": "string",
          "name": "_productNotes",
          "type": "string"
        }
      ],
      "name": "harvestItem",
      "outputs": [],
      "stateMutability": "nonpayable",
      "type": "function"
    },
    {
      "inputs": [
        {
          "internalType": "uint256",
          "name": "_upc",
          "type": "uint256"
        }
      ],
      "name": "processItem",
      "outputs": [],
      "stateMutability": "nonpayable",
      "type": "function"
    },
    {
      "inputs": [
        {
          "internalType": "uint256",
          "name": "_upc",
          "type": "uint256"
        }
      ],
      "name": "packItem",
      "outputs": [],
      "stateMutability": "nonpayable",
      "type": "function"
    },
    {
      "inputs": [
        {
          "internalType": "uint256",
          "name": "_upc",
          "type": "uint256"
        },
        {
          "internalType": "uint256",
          "name": "_price",
          "type": "uint256"
        }
      ],
      "name": "sellItem",
      "outputs": [],
      "stateMutability": "nonpayable",
      "type": "function"
    },
    {
      "inputs": [
        {
          "internalType": "uint256",
          "name": "_upc",
          "type": "uint256"
        }
      ],
      "name": "buyItem",
      "outputs": [],
      "stateMutability": "payable",
      "type": "function",
      "payable": true
    },
    {
      "inputs": [
        {
          "internalType": "uint256",
          "name": "_upc",
          "type": "uint256"
        }
      ],
      "name": "shipItem",
      "outputs": [],
      "stateMutability": "nonpayable",
      "type": "function"
    },
    {
      "inputs": [
        {
          "internalType": "uint256",
          "name": "_upc",
          "type": "uint256"
        }
      ],
      "name": "receiveItem",
      "outputs": [],
      "stateMutability": "nonpayable",
      "type": "function"
    },
    {
      "inputs": [
        {
          "internalType": "uint256",
          "name": "_upc",
          "type": "uint256"
        }
      ],
      "name": "purchaseItem",
      "outputs": [],
      "stateMutability": "nonpayable",
      "type": "function"
    },
    {
      "inputs": [
        {
          "internalType": "uint256",
          "name": "_upc",
          "type": "uint256"
        }
      ],
      "name": "getItemState",
      "outputs": [
        {
          "internalType": "uint256",
          "name": "",
          "type": "uint256"
        }
      ],
      "stateMutability": "view",
      "type": "function",
      "constant": true
    },
    {
      "inputs": [
        {
          "internalType": "uint256",
          "name": "_upc",
          "type": "uint256"
        }
      ],
      "name": "getItemPrice",
      "outputs": [
        {
          "internalType": "uint256",
          "name": "",
          "type": "uint256"
        }
      ],
      "stateMutability": "view",
      "type": "function",
      "constant": true
    },
    {
      "inputs": [
        {
          "internalType": "uint256",
          "name": "_upc",
          "type": "uint256"
        }
      ],
      "name": "getItemOwner",
      "outputs": [
        {
          "internalType": "address",
          "name": "",
          "type": "address"
        }
      ],
      "stateMutability": "view",
      "type": "function",
      "constant": true
    },
    {
      "inputs": [
        {
          "internalType": "uint256",
          "name": "_upc",
          "type": "uint256"
        }
      ],
      "name": "getItemFarmer",
      "outputs": [
        {
          "internalType": "address",
          "name": "",
          "type": "address"
        }
      ],
      "stateMutability": "view",
      "type": "function",
      "constant": true
    },
    {
      "inputs": [
        {
          "internalType": "uint256",
          "name": "_upc",
          "type": "uint256"
        }
      ],
      "name": "getItemDistributor",
      "outputs": [
        {
          "internalType": "address",
          "name": "",
          "type": "address"
        }
      ],
      "stateMutability": "view",
      "type": "function",
      "constant": true
    },
    {
      "inputs": [
        {
          "internalType": "uint256",
          "name": "_upc",
          "type": "uint256"
        }
      ],
      "name": "getItemRetailer",
      "outputs": [
        {
          "internalType": "address",
          "name": "",
          "type": "address"
        }
      ],
      "stateMutability": "view",
      "type": "function",
      "constant": true
    },
    {
      "inputs": [
        {
          "internalType": "uint256",
          "name": "_upc",
          "type": "uint256"
        }
      ],
      "name": "getItemConsumer",
      "outputs": [
        {
          "internalType": "address",
          "name": "",
          "type": "address"
        }
      ],
      "stateMutability": "view",
      "type": "function",
      "constant": true
    },
    {
      "inputs": [
        {
          "internalType": "uint256",
          "name": "_upc",
          "type": "uint256"
        }
      ],
      "name": "fetchItemBufferOne",
      "outputs": [
        {
          "internalType": "uint256",
          "name": "itemSKU",
          "type": "uint256"
        },
        {
          "internalType": "uint256",
          "name": "itemUPC",
          "type": "uint256"
        },
        {
          "internalType": "address",
          "name": "ownerID",
          "type": "address"
        },
        {
          "internalType": "address",
          "name": "farmerID",
          "type": "address"
        },
        {
          "internalType": "string",
          "name": "farmerName",
          "type": "string"
        },
        {
          "internalType": "string",
          "name": "farmerInformation",
          "type": "string"
        },
        {
          "internalType": "string",
          "name": "farmerLatitude",
          "type": "string"
        },
        {
          "internalType": "string",
          "name": "farmerLongitude",
          "type": "string"
        }
      ],
      "stateMutability": "view",
      "type": "function",
      "constant": true
    },
    {
      "inputs": [
        {
          "internalType": "uint256",
          "name": "_upc",
          "type": "uint256"
        }
      ],
      "name": "fetchItemBufferTwo",
      "outputs": [
        {
          "internalType": "uint256",
          "name": "itemSKU",
          "type": "uint256"
        },
        {
          "internalType": "uint256",
          "name": "itemUPC",
          "type": "uint256"
        },
        {
          "internalType": "uint256",
          "name": "productID",
          "type": "uint256"
        },
        {
          "internalType": "string",
          "name": "productNotes",
          "type": "string"
        },
        {
          "internalType": "uint256",
          "name": "productPrice",
          "type": "uint256"
        },
        {
          "internalType": "uint256",
          "name": "itemState",
          "type": "uint256"
        },
        {
          "internalType": "address",
          "name": "distributorID",
          "type": "address"
        },
        {
          "internalType": "address",
          "name": "retailerID",
          "type": "address"
        },
        {
          "internalType": "address",
          "name": "consumerID",
          "type": "address"
        }
      ],
      "stateMutability": "view",
      "type": "function",
      "constant": true
    }
  ],
  "bytecode": "0x608060405262000015336200015d60201b60201c565b6200002633620001be60201b60201c565b62000037336200021f60201b60201c565b62000048336200028060201b60201c565b33600560006101000a81548173ffffffffffffffffffffffffffffffffffffffff021916908373ffffffffffffffffffffffffffffffffffffffff160217905550600560009054906101000a900473ffffffffffffffffffffffffffffffffffffffff1673ffffffffffffffffffffffffffffffffffffffff16600073ffffffffffffffffffffffffffffffffffffffff167f8be0079c531659141344cd1fd0a4f28419497f9722a3daafe3b4186f6b6457e060405160405180910390a333600560006101000a81548173ffffffffffffffffffffffffffffffffffffffff021916908373ffffffffffffffffffffffffffffffffffffffff1602179055506001600781905550600160068190555062000511565b62000178816001620002e160201b620039fb1790919060201c565b8073ffffffffffffffffffffffffffffffffffffffff167f2e0ded4123377a3c2bc9a26f1717655a129e2f20752924d42e730ec89c83dbd060405160405180910390a250565b620001d9816002620002e160201b620039fb1790919060201c565b8073ffffffffffffffffffffffffffffffffffffffff167fddbf200aa634dc3fb81cfd68583dd1040d1c751d335e1d86b631bde3e977fea860405160405180910390a250565b6200023a816003620002e160201b620039fb1790919060201c565b8073ffffffffffffffffffffffffffffffffffffffff167f71ae26cad02663e3d92efd6ec56031a80d74a20c0ab4183faa8bf262261c9baa60405160405180910390a250565b6200029b816004620002e160201b620039fb1790919060201c565b8073ffffffffffffffffffffffffffffffffffffffff167f28b26e7a3d20aedbc5f8f2ebf7da671c0491723a2b78f47a097b0e46dee0714260405160405180910390a250565b600073ffffffffffffffffffffffffffffffffffffffff168173ffffffffffffffffffffffffffffffffffffffff16141562000369576040517f08c379a0000000000000000000000000000000000000000000000000000000008152600401808060200182810382526031815260200180620044266031913960400191505060405180910390fd5b6200037b82826200043160201b60201c565b15620003d3576040517f08c379a0000000000000000000000000000000000000000000000000000000008152600401808060200182810382526040815260200180620044896040913960400191505060405180910390fd5b60018260000160008373ffffffffffffffffffffffffffffffffffffffff1673ffffffffffffffffffffffffffffffffffffffff16815260200190815260200160002060006101000a81548160ff0219169083151502179055505050565b60008073ffffffffffffffffffffffffffffffffffffffff168273ffffffffffffffffffffffffffffffffffffffff161415620004ba576040517f08c379a0000000000000000000000000000000000000000000000000000000008152600401808060200182810382526032815260200180620044576032913960400191505060405180910390fd5b8260000160008373ffffffffffffffffffffffffffffffffffffffff1673ffffffffffffffffffffffffffffffffffffffff16815260200190815260200160002060009054906101000a900460ff16905092915050565b613f0580620005216000396000f3fe6080604052600436106101ee5760003560e01c80637250e2241161010d578063a26be999116100a0578063db0e6a2f1161006f578063db0e6a2f146110ca578063e7fb74c7146110e1578063f2fde38b1461110f578063f30fc48014611160578063f61c899a1461119b576101ee565b8063a26be99914610c9d578063b942906914610cd8578063bdd8a6a814610d41578063d38ea5bf1461108f576101ee565b8063834ff739116100dc578063834ff73914610b235780638da5cb5b14610b8c5780638ec4f50514610be35780638f0c86fa14610c34576101ee565b80637250e224146107fe57806377c459131461084f57806380c3f96d14610abb57806380fc0ce414610b0c576101ee565b806349dae7661161018557806361e6982d1161015457806361e6982d14610649578063644241db1461066057806366225ff914610677578063715018a6146107e7576101ee565b806349dae766146104db5780634c4df8701461051657806353f956ba146105655780635da09b88146105e0576101ee565b80632d923561116101c15780632d923561146103b5578063436b3837146103fa57806343d726d61461047557806345bdac101461048c576101ee565b8063112940f9146101f35780631d1440fd146102445780631f866fe1146102bf578063219291131461033a575b600080fd5b3480156101ff57600080fd5b506102426004803603602081101561021657600080fd5b81019080803573ffffffffffffffffffffffffffffffffffffffff1690602001909291905050506111d6565b005b34801561025057600080fd5b5061027d6004803603602081101561026757600080fd5b8101908080359060200190929190505050611240565b604051808273ffffffffffffffffffffffffffffffffffffffff1673ffffffffffffffffffffffffffffffffffffffff16815260200191505060405180910390f35b3480156102cb57600080fd5b506102f8600480360360208110156102e257600080fd5b810190808035906020019092919050505061127f565b604051808273ffffffffffffffffffffffffffffffffffffffff1673ffffffffffffffffffffffffffffffffffffffff16815260200191505060405180910390f35b34801561034657600080fd5b506103736004803603602081101561035d57600080fd5b81019080803590602001909291905050506112be565b604051808273ffffffffffffffffffffffffffffffffffffffff1673ffffffffffffffffffffffffffffffffffffffff16815260200191505060405180910390f35b3480156103c157600080fd5b506103f8600480360360408110156103d857600080fd5b8101908080359060200190929190803590602001909291905050506112fd565b005b34801561040657600080fd5b506104336004803603602081101561041d57600080fd5b810190808035906020019092919050505061158c565b604051808273ffffffffffffffffffffffffffffffffffffffff1673ffffffffffffffffffffffffffffffffffffffff16815260200191505060405180910390f35b34801561048157600080fd5b5061048a6115cb565b005b34801561049857600080fd5b506104c5600480360360208110156104af57600080fd5b81019080803590602001909291905050506116c9565b6040518082815260200191505060405180910390f35b3480156104e757600080fd5b50610514600480360360208110156104fe57600080fd5b8101908080359060200190929190505050611700565b005b34801561052257600080fd5b5061054f6004803603602081101561053957600080fd5b8101908080359060200190929190505050611974565b6040518082815260200191505060405180910390f35b34801561057157600080fd5b5061059e6004803603602081101561058857600080fd5b8101908080359060200190929190505050611993565b604051808273ffffffffffffffffffffffffffffffffffffffff1673ffffffffffffffffffffffffffffffffffffffff16815260200191505060405180910390f35b3480156105ec57600080fd5b5061062f6004803603602081101561060357600080fd5b81019080803573ffffffffffffffffffffffffffffffffffffffff1690602001909291905050506119d2565b604051808215151515815260200191505060405180910390f35b34801561065557600080fd5b5061065e6119ef565b005b34801561066c57600080fd5b506106756119fa565b005b34801561068357600080fd5b506106b06004803603602081101561069a57600080fd5b8101908080359060200190929190505050611a05565b604051808a8152602001898152602001888152602001806020018781526020018681526020018573ffffffffffffffffffffffffffffffffffffffff1673ffffffffffffffffffffffffffffffffffffffff1681526020018473ffffffffffffffffffffffffffffffffffffffff1673ffffffffffffffffffffffffffffffffffffffff1681526020018373ffffffffffffffffffffffffffffffffffffffff1673ffffffffffffffffffffffffffffffffffffffff168152602001828103825288818151815260200191508051906020019080838360005b838110156107a4578082015181840152602081019050610789565b50505050905090810190601f1680156107d15780820380516001836020036101000a031916815260200191505b509a505050505050505050505060405180910390f35b3480156107f357600080fd5b506107fc611c24565b005b34801561080a57600080fd5b5061084d6004803603602081101561082157600080fd5b81019080803573ffffffffffffffffffffffffffffffffffffffff169060200190929190505050611da8565b005b34801561085b57600080fd5b506108886004803603602081101561087257600080fd5b8101908080359060200190929190505050611e12565b604051808981526020018881526020018773ffffffffffffffffffffffffffffffffffffffff1673ffffffffffffffffffffffffffffffffffffffff1681526020018673ffffffffffffffffffffffffffffffffffffffff1673ffffffffffffffffffffffffffffffffffffffff16815260200180602001806020018060200180602001858103855289818151815260200191508051906020019080838360005b83811015610944578082015181840152602081019050610929565b50505050905090810190601f1680156109715780820380516001836020036101000a031916815260200191505b50858103845288818151815260200191508051906020019080838360005b838110156109aa57808201518184015260208101905061098f565b50505050905090810190601f1680156109d75780820380516001836020036101000a031916815260200191505b50858103835287818151815260200191508051906020019080838360005b83811015610a105780820151818401526020810190506109f5565b50505050905090810190601f168015610a3d5780820380516001836020036101000a031916815260200191505b50858103825286818151815260200191508051906020019080838360005b83811015610a76578082015181840152602081019050610a5b565b50505050905090810190601f168015610aa35780820380516001836020036101000a031916815260200191505b509c5050505050505050505050505060405180910390f35b348015610ac757600080fd5b50610b0a60048036036020811015610ade57600080fd5b81019080803573ffffffffffffffffffffffffffffffffffffffff1690602001909291905050506121a1565b005b348015610b1857600080fd5b50610b21612228565b005b348015610b2f57600080fd5b50610b7260048036036020811015610b4657600080fd5b81019080803573ffffffffffffffffffffffffffffffffffffffff169060200190929190505050612233565b604051808215151515815260200191505060405180910390f35b348015610b9857600080fd5b50610ba1612250565b604051808273ffffffffffffffffffffffffffffffffffffffff1673ffffffffffffffffffffffffffffffffffffffff16815260200191505060405180910390f35b348015610bef57600080fd5b50610c3260048036036020811015610c0657600080fd5b81019080803573ffffffffffffffffffffffffffffffffffffffff16906020019092919050505061227a565b005b348015610c4057600080fd5b50610c8360048036036020811015610c5757600080fd5b81019080803573ffffffffffffffffffffffffffffffffffffffff1690602001909291905050506122e4565b604051808215151515815260200191505060405180910390f35b348015610ca957600080fd5b50610cd660048036036020811015610cc057600080fd5b8101908080359060200190929190505050612301565b005b348015610ce457600080fd5b50610d2760048036036020811015610cfb57600080fd5b81019080803573ffffffffffffffffffffffffffffffffffffffff169060200190929190505050612528565b604051808215151515815260200191505060405180910390f35b348015610d4d57600080fd5b5061108d600480360360e0811015610d6457600080fd5b8101908080359060200190929190803573ffffffffffffffffffffffffffffffffffffffff16906020019092919080359060200190640100000000811115610dab57600080fd5b820183602082011115610dbd57600080fd5b80359060200191846001830284011164010000000083111715610ddf57600080fd5b91908080601f016020809104026020016040519081016040528093929190818152602001838380828437600081840152601f19601f82011690508083019250505050505050919291929080359060200190640100000000811115610e4257600080fd5b820183602082011115610e5457600080fd5b80359060200191846001830284011164010000000083111715610e7657600080fd5b91908080601f016020809104026020016040519081016040528093929190818152602001838380828437600081840152601f19601f82011690508083019250505050505050919291929080359060200190640100000000811115610ed957600080fd5b820183602082011115610eeb57600080fd5b80359060200191846001830284011164010000000083111715610f0d57600080fd5b91908080601f016020809104026020016040519081016040528093929190818152602001838380828437600081840152601f19601f82011690508083019250505050505050919291929080359060200190640100000000811115610f7057600080fd5b820183602082011115610f8257600080fd5b80359060200191846001830284011164010000000083111715610fa457600080fd5b91908080601f016020809104026020016040519081016040528093929190818152602001838380828437600081840152601f19601f8201169050808301925050505050505091929192908035906020019064010000000081111561100757600080fd5b82018360208201111561101957600080fd5b8035906020019184600183028401116401000000008311171561103b57600080fd5b91908080601f016020809104026020016040519081016040528093929190818152602001838380828437600081840152601f19601f820116905080830192505050505050509192919290505050612545565b005b34801561109b57600080fd5b506110c8600480360360208110156110b257600080fd5b8101908080359060200190929190505050612955565b005b3480156110d657600080fd5b506110df612b7c565b005b61110d600480360360208110156110f757600080fd5b8101908080359060200190929190505050612b87565b005b34801561111b57600080fd5b5061115e6004803603602081101561113257600080fd5b81019080803573ffffffffffffffffffffffffffffffffffffffff169060200190929190505050612f79565b005b34801561116c57600080fd5b506111996004803603602081101561118357600080fd5b8101908080359060200190929190505050613182565b005b3480156111a757600080fd5b506111d4600480360360208110156111be57600080fd5b81019080803590602001909291905050506133f6565b005b6111df33612233565b611234576040517f08c379a0000000000000000000000000000000000000000000000000000000008152600401808060200182810382526022815260200180613dd16022913960400191505060405180910390fd5b61123d8161364d565b50565b600080600083815260200190815260200160002060020160009054906101000a900473ffffffffffffffffffffffffffffffffffffffff169050919050565b6000806000838152602001908152602001600020600c0160009054906101000a900473ffffffffffffffffffffffffffffffffffffffff169050919050565b6000806000838152602001908152602001600020600b0160019054906101000a900473ffffffffffffffffffffffffffffffffffffffff169050919050565b61130633612528565b611378576040517f08c379a00000000000000000000000000000000000000000000000000000000081526004018080602001828103825260208152602001807f43414c4c45525f444f45535f4e4f545f484156455f4641524d45525f524f4c4581525060200191505060405180910390fd5b8160008082815260200190815260200160002060020160009054906101000a900473ffffffffffffffffffffffffffffffffffffffff1673ffffffffffffffffffffffffffffffffffffffff163373ffffffffffffffffffffffffffffffffffffffff161461144f576040517f08c379a000000000000000000000000000000000000000000000000000000000815260040180806020018281038252601c8152602001807f43414c4c45525f49535f4e4f545f5448455f4954454d5f4f574e45520000000081525060200191505060405180910390fd5b826002600781111561145d57fe5b600080838152602001908152602001600020600b0160009054906101000a900460ff16600781111561148b57fe5b146114fe576040517f08c379a00000000000000000000000000000000000000000000000000000000081526004018080602001828103825260168152602001807f45585045435445445f5041434b45445f5354415455530000000000000000000081525060200191505060405180910390fd5b82600080868152602001908152602001600020600a01819055506003600080868152602001908152602001600020600b0160006101000a81548160ff0219169083600781111561154a57fe5b02179055507fa96ae0fc3224ebd79eebfe54bd130cc9cb94416cddd1f2386115e00b72532468846040518082815260200191505060405180910390a150505050565b6000806000838152602001908152602001600020600d0160009054906101000a900473ffffffffffffffffffffffffffffffffffffffff169050919050565b600560009054906101000a900473ffffffffffffffffffffffffffffffffffffffff1673ffffffffffffffffffffffffffffffffffffffff163373ffffffffffffffffffffffffffffffffffffffff161461168e576040517f08c379a00000000000000000000000000000000000000000000000000000000081526004018080602001828103825260178152602001807f43414c4c45525f49535f4e4f545f5448455f4f574e455200000000000000000081525060200191505060405180910390fd5b600560009054906101000a900473ffffffffffffffffffffffffffffffffffffffff1673ffffffffffffffffffffffffffffffffffffffff16ff5b6000806000838152602001908152602001600020600b0160009054906101000a900460ff1660078111156116f957fe5b9050919050565b61170933612528565b61177b576040517f08c379a00000000000000000000000000000000000000000000000000000000081526004018080602001828103825260208152602001807f43414c4c45525f444f45535f4e4f545f484156455f4641524d45525f524f4c4581525060200191505060405180910390fd5b8060008082815260200190815260200160002060020160009054906101000a900473ffffffffffffffffffffffffffffffffffffffff1673ffffffffffffffffffffffffffffffffffffffff163373ffffffffffffffffffffffffffffffffffffffff1614611852576040517f08c379a000000000000000000000000000000000000000000000000000000000815260040180806020018281038252601c8152602001807f43414c4c45525f49535f4e4f545f5448455f4954454d5f4f574e45520000000081525060200191505060405180910390fd5b816000600781111561186057fe5b600080838152602001908152602001600020600b0160009054906101000a900460ff16600781111561188e57fe5b14611901576040517f08c379a00000000000000000000000000000000000000000000000000000000081526004018080602001828103825260198152602001807f45585045435445445f4841525645535445445f5354415455530000000000000081525060200191505060405180910390fd5b6001600080858152602001908152602001600020600b0160006101000a81548160ff0219169083600781111561193357fe5b02179055507f5afe3b1bf87069693c075da5c22a98d63d1aef98a30dbbe538d0781a98b77ee5836040518082815260200191505060405180910390a1505050565b6000806000838152602001908152602001600020600a01549050919050565b600080600083815260200190815260200160002060030160009054906101000a900473ffffffffffffffffffffffffffffffffffffffff169050919050565b60006119e88260036136a790919063ffffffff16565b9050919050565b6119f833613785565b565b611a03336137df565b565b6000806000606060008060008060008060008b81526020019081526020016000206000015498506000808b81526020019081526020016000206001015497506000808b81526020019081526020016000206008015496506000808b81526020019081526020016000206009018054600181600116156101000203166002900480601f016020809104026020016040519081016040528092919081815260200182805460018160011615610100020316600290048015611b055780601f10611ada57610100808354040283529160200191611b05565b820191906000526020600020905b815481529060010190602001808311611ae857829003601f168201915b505050505095506000808b8152602001908152602001600020600a015494506000808b8152602001908152602001600020600b0160009054906101000a900460ff166007811115611b5257fe5b93506000808b8152602001908152602001600020600b0160019054906101000a900473ffffffffffffffffffffffffffffffffffffffff1692506000808b8152602001908152602001600020600c0160009054906101000a900473ffffffffffffffffffffffffffffffffffffffff1691506000808b8152602001908152602001600020600d0160009054906101000a900473ffffffffffffffffffffffffffffffffffffffff1690508888888888888888889850985098509850985098509850985098509193959799909294969850565b600560009054906101000a900473ffffffffffffffffffffffffffffffffffffffff1673ffffffffffffffffffffffffffffffffffffffff163373ffffffffffffffffffffffffffffffffffffffff1614611ce7576040517f08c379a00000000000000000000000000000000000000000000000000000000081526004018080602001828103825260178152602001807f43414c4c45525f49535f4e4f545f5448455f4f574e455200000000000000000081525060200191505060405180910390fd5b600073ffffffffffffffffffffffffffffffffffffffff16600560009054906101000a900473ffffffffffffffffffffffffffffffffffffffff1673ffffffffffffffffffffffffffffffffffffffff167f8be0079c531659141344cd1fd0a4f28419497f9722a3daafe3b4186f6b6457e060405160405180910390a36000600560006101000a81548173ffffffffffffffffffffffffffffffffffffffff021916908373ffffffffffffffffffffffffffffffffffffffff160217905550565b611db1336122e4565b611e06576040517f08c379a0000000000000000000000000000000000000000000000000000000008152600401808060200182810382526025815260200180613e176025913960400191505060405180910390fd5b611e0f81613839565b50565b6000806000806060806060806000808a81526020019081526020016000206000015497506000808a81526020019081526020016000206001015496506000808a815260200190815260200160002060020160009054906101000a900473ffffffffffffffffffffffffffffffffffffffff1695506000808a815260200190815260200160002060030160009054906101000a900473ffffffffffffffffffffffffffffffffffffffff1694506000808a81526020019081526020016000206004018054600181600116156101000203166002900480601f016020809104026020016040519081016040528092919081815260200182805460018160011615610100020316600290048015611f675780601f10611f3c57610100808354040283529160200191611f67565b820191906000526020600020905b815481529060010190602001808311611f4a57829003601f168201915b505050505093506000808a81526020019081526020016000206005018054600181600116156101000203166002900480601f0160208091040260200160405190810160405280929190818152602001828054600181600116156101000203166002900480156120175780601f10611fec57610100808354040283529160200191612017565b820191906000526020600020905b815481529060010190602001808311611ffa57829003601f168201915b505050505092506000808a81526020019081526020016000206006018054600181600116156101000203166002900480601f0160208091040260200160405190810160405280929190818152602001828054600181600116156101000203166002900480156120c75780601f1061209c576101008083540402835291602001916120c7565b820191906000526020600020905b8154815290600101906020018083116120aa57829003601f168201915b505050505091506000808a81526020019081526020016000206007018054600181600116156101000203166002900480601f0160208091040260200160405190810160405280929190818152602001828054600181600116156101000203166002900480156121775780601f1061214c57610100808354040283529160200191612177565b820191906000526020600020905b81548152906001019060200180831161215a57829003601f168201915b50505050509050878787878787878797509750975097509750975097509750919395975091939597565b6121aa33612528565b61221c576040517f08c379a00000000000000000000000000000000000000000000000000000000081526004018080602001828103825260208152602001807f43414c4c45525f444f45535f4e4f545f484156455f4641524d45525f524f4c4581525060200191505060405180910390fd5b61222581613893565b50565b612231336138ed565b565b60006122498260046136a790919063ffffffff16565b9050919050565b6000600560009054906101000a900473ffffffffffffffffffffffffffffffffffffffff16905090565b612283336119d2565b6122d8576040517f08c379a0000000000000000000000000000000000000000000000000000000008152600401808060200182810382526022815260200180613eae6022913960400191505060405180910390fd5b6122e181613947565b50565b60006122fa8260026136a790919063ffffffff16565b9050919050565b61230a336119d2565b61235f576040517f08c379a0000000000000000000000000000000000000000000000000000000008152600401808060200182810382526022815260200180613eae6022913960400191505060405180910390fd5b806005600781111561236d57fe5b600080838152602001908152602001600020600b0160009054906101000a900460ff16600781111561239b57fe5b1461240e576040517f08c379a00000000000000000000000000000000000000000000000000000000081526004018080602001828103825260178152602001807f45585045435445445f534849505045445f53544154555300000000000000000081525060200191505060405180910390fd5b3360008084815260200190815260200160002060020160006101000a81548173ffffffffffffffffffffffffffffffffffffffff021916908373ffffffffffffffffffffffffffffffffffffffff16021790555033600080848152602001908152602001600020600c0160006101000a81548173ffffffffffffffffffffffffffffffffffffffff021916908373ffffffffffffffffffffffffffffffffffffffff1602179055506006600080848152602001908152602001600020600b0160006101000a81548160ff021916908360078111156124e857fe5b02179055507fa8142743f8f70a4c26f3691cf4ed59718381fb2f18070ec52be1f1022d855557826040518082815260200191505060405180910390a15050565b600061253e8260016136a790919063ffffffff16565b9050919050565b61254e33612528565b6125c0576040517f08c379a00000000000000000000000000000000000000000000000000000000081526004018080602001828103825260208152602001807f43414c4c45525f444f45535f4e4f545f484156455f4641524d45525f524f4c4581525060200191505060405180910390fd5b604051806101e0016040528060075481526020018881526020018773ffffffffffffffffffffffffffffffffffffffff1681526020018773ffffffffffffffffffffffffffffffffffffffff16815260200186815260200185815260200184815260200183815260200188600754018152602001828152602001600081526020016000600781111561264e57fe5b8152602001600073ffffffffffffffffffffffffffffffffffffffff168152602001600073ffffffffffffffffffffffffffffffffffffffff168152602001600073ffffffffffffffffffffffffffffffffffffffff16815250600080898152602001908152602001600020600082015181600001556020820151816001015560408201518160020160006101000a81548173ffffffffffffffffffffffffffffffffffffffff021916908373ffffffffffffffffffffffffffffffffffffffff16021790555060608201518160030160006101000a81548173ffffffffffffffffffffffffffffffffffffffff021916908373ffffffffffffffffffffffffffffffffffffffff1602179055506080820151816004019080519060200190612778929190613c82565b5060a0820151816005019080519060200190612795929190613c82565b5060c08201518160060190805190602001906127b2929190613c82565b5060e08201518160070190805190602001906127cf929190613c82565b5061010082015181600801556101208201518160090190805190602001906127f8929190613c82565b5061014082015181600a015561016082015181600b0160006101000a81548160ff0219169083600781111561282957fe5b021790555061018082015181600b0160016101000a81548173ffffffffffffffffffffffffffffffffffffffff021916908373ffffffffffffffffffffffffffffffffffffffff1602179055506101a082015181600c0160006101000a81548173ffffffffffffffffffffffffffffffffffffffff021916908373ffffffffffffffffffffffffffffffffffffffff1602179055506101c082015181600d0160006101000a81548173ffffffffffffffffffffffffffffffffffffffff021916908373ffffffffffffffffffffffffffffffffffffffff1602179055509050506001600754016007819055507f8e55ccfc9778ff8eba1646d765cf1982537ce0f9257054a17b48aad745250183876040518082815260200191505060405180910390a150505050505050565b61295e33612233565b6129b3576040517f08c379a0000000000000000000000000000000000000000000000000000000008152600401808060200182810382526022815260200180613dd16022913960400191505060405180910390fd5b80600660078111156129c157fe5b600080838152602001908152602001600020600b0160009054906101000a900460ff1660078111156129ef57fe5b14612a62576040517f08c379a00000000000000000000000000000000000000000000000000000000081526004018080602001828103825260188152602001807f45585045435445445f52454345495645445f535441545553000000000000000081525060200191505060405180910390fd5b3360008084815260200190815260200160002060020160006101000a81548173ffffffffffffffffffffffffffffffffffffffff021916908373ffffffffffffffffffffffffffffffffffffffff16021790555033600080848152602001908152602001600020600d0160006101000a81548173ffffffffffffffffffffffffffffffffffffffff021916908373ffffffffffffffffffffffffffffffffffffffff1602179055506007600080848152602001908152602001600020600b0160006101000a81548160ff02191690836007811115612b3c57fe5b02179055507f653d56639fee6b566a5c804764e9689de38645f0b733df89a36a1b7b42173dd8826040518082815260200191505060405180910390a15050565b612b85336139a1565b565b612b90336122e4565b612be5576040517f08c379a0000000000000000000000000000000000000000000000000000000008152600401808060200182810382526025815260200180613e176025913960400191505060405180910390fd5b80600080828152602001908152602001600020600a0154341015612c71576040517f08c379a00000000000000000000000000000000000000000000000000000000081526004018080602001828103825260188152602001807f56414c55455f49535f4c4553535f5448414e5f5052494345000000000000000081525060200191505060405180910390fd5b818260036007811115612c8057fe5b600080838152602001908152602001600020600b0160009054906101000a900460ff166007811115612cae57fe5b14612d21576040517f08c379a00000000000000000000000000000000000000000000000000000000081526004018080602001828103825260178152602001807f45585045435445445f464f5253414c455f53544154555300000000000000000081525060200191505060405180910390fd5b3360008086815260200190815260200160002060020160006101000a81548173ffffffffffffffffffffffffffffffffffffffff021916908373ffffffffffffffffffffffffffffffffffffffff16021790555033600080868152602001908152602001600020600b0160016101000a81548173ffffffffffffffffffffffffffffffffffffffff021916908373ffffffffffffffffffffffffffffffffffffffff1602179055506004600080868152602001908152602001600020600b0160006101000a81548160ff02191690836007811115612dfb57fe5b0217905550600080600086815260200190815260200160002060030160009054906101000a900473ffffffffffffffffffffffffffffffffffffffff1690508073ffffffffffffffffffffffffffffffffffffffff166108fc600080888152602001908152602001600020600a01549081150290604051600060405180830381858888f19350505050158015612e95573d6000803e3d6000fd5b507f92f64ca637d023f354075a4be751b169c1a8a9ccb6d33cdd0cb3520543995727856040518082815260200191505060405180910390a150506000806000838152602001908152602001600020600a01549050600081340390506000806000858152602001908152602001600020600d0160009054906101000a900473ffffffffffffffffffffffffffffffffffffffff1690508073ffffffffffffffffffffffffffffffffffffffff166108fc839081150290604051600060405180830381858888f19350505050158015612f70573d6000803e3d6000fd5b50505050505050565b600560009054906101000a900473ffffffffffffffffffffffffffffffffffffffff1673ffffffffffffffffffffffffffffffffffffffff163373ffffffffffffffffffffffffffffffffffffffff161461303c576040517f08c379a00000000000000000000000000000000000000000000000000000000081526004018080602001828103825260178152602001807f43414c4c45525f49535f4e4f545f5448455f4f574e455200000000000000000081525060200191505060405180910390fd5b600073ffffffffffffffffffffffffffffffffffffffff168173ffffffffffffffffffffffffffffffffffffffff1614156130c2576040517f08c379a0000000000000000000000000000000000000000000000000000000008152600401808060200182810382526024815260200180613df36024913960400191505060405180910390fd5b8073ffffffffffffffffffffffffffffffffffffffff16600560009054906101000a900473ffffffffffffffffffffffffffffffffffffffff1673ffffffffffffffffffffffffffffffffffffffff167f8be0079c531659141344cd1fd0a4f28419497f9722a3daafe3b4186f6b6457e060405160405180910390a380600560006101000a81548173ffffffffffffffffffffffffffffffffffffffff021916908373ffffffffffffffffffffffffffffffffffffffff16021790555050565b61318b33612528565b6131fd576040517f08c379a00000000000000000000000000000000000000000000000000000000081526004018080602001828103825260208152602001807f43414c4c45525f444f45535f4e4f545f484156455f4641524d45525f524f4c4581525060200191505060405180910390fd5b8060008082815260200190815260200160002060020160009054906101000a900473ffffffffffffffffffffffffffffffffffffffff1673ffffffffffffffffffffffffffffffffffffffff163373ffffffffffffffffffffffffffffffffffffffff16146132d4576040517f08c379a000000000000000000000000000000000000000000000000000000000815260040180806020018281038252601c8152602001807f43414c4c45525f49535f4e4f545f5448455f4954454d5f4f574e45520000000081525060200191505060405180910390fd5b81600160078111156132e257fe5b600080838152602001908152602001600020600b0160009054906101000a900460ff16600781111561331057fe5b14613383576040517f08c379a00000000000000000000000000000000000000000000000000000000081526004018080602001828103825260198152602001807f45585045435445445f50524f4345535345445f5354415455530000000000000081525060200191505060405180910390fd5b6002600080858152602001908152602001600020600b0160006101000a81548160ff021916908360078111156133b557fe5b02179055507f9b3b66e2380b690bae22c73ef1428fb0c91e72fe14a4b6defa13035214187aff836040518082815260200191505060405180910390a1505050565b6133ff336122e4565b613454576040517f08c379a0000000000000000000000000000000000000000000000000000000008152600401808060200182810382526025815260200180613e176025913960400191505060405180910390fd5b8060008082815260200190815260200160002060020160009054906101000a900473ffffffffffffffffffffffffffffffffffffffff1673ffffffffffffffffffffffffffffffffffffffff163373ffffffffffffffffffffffffffffffffffffffff161461352b576040517f08c379a000000000000000000000000000000000000000000000000000000000815260040180806020018281038252601c8152602001807f43414c4c45525f49535f4e4f545f5448455f4954454d5f4f574e45520000000081525060200191505060405180910390fd5b816004600781111561353957fe5b600080838152602001908152602001600020600b0160009054906101000a900460ff16600781111561356757fe5b146135da576040517f08c379a00000000000000000000000000000000000000000000000000000000081526004018080602001828103825260188152602001807f45585045435445445f5448455f534f4c445f535441545553000000000000000081525060200191505060405180910390fd5b6005600080858152602001908152602001600020600b0160006101000a81548160ff0219169083600781111561360c57fe5b02179055507ff00b9a5725b80c54016f42114f6ed7792d22eecb116011c4afac29c57bef6c95836040518082815260200191505060405180910390a1505050565b6136618160046139fb90919063ffffffff16565b8073ffffffffffffffffffffffffffffffffffffffff167f28b26e7a3d20aedbc5f8f2ebf7da671c0491723a2b78f47a097b0e46dee0714260405160405180910390a250565b60008073ffffffffffffffffffffffffffffffffffffffff168273ffffffffffffffffffffffffffffffffffffffff16141561372e576040517f08c379a0000000000000000000000000000000000000000000000000000000008152600401808060200182810382526032815260200180613e3c6032913960400191505060405180910390fd5b8260000160008373ffffffffffffffffffffffffffffffffffffffff1673ffffffffffffffffffffffffffffffffffffffff16815260200190815260200160002060009054906101000a900460ff16905092915050565b613799816004613b3f90919063ffffffff16565b8073ffffffffffffffffffffffffffffffffffffffff167fe3f5ed5f263f1f01764a96edfc7d025f511ec5f7d180e8816908b78bcf74f09860405160405180910390a250565b6137f3816002613b3f90919063ffffffff16565b8073ffffffffffffffffffffffffffffffffffffffff167f126174f6cf49c81cdb4a9214c6b8f037bef55b4ec31e4fc776cea2a1c8a88d5960405160405180910390a250565b61384d8160026139fb90919063ffffffff16565b8073ffffffffffffffffffffffffffffffffffffffff167fddbf200aa634dc3fb81cfd68583dd1040d1c751d335e1d86b631bde3e977fea860405160405180910390a250565b6138a78160016139fb90919063ffffffff16565b8073ffffffffffffffffffffffffffffffffffffffff167f2e0ded4123377a3c2bc9a26f1717655a129e2f20752924d42e730ec89c83dbd060405160405180910390a250565b613901816001613b3f90919063ffffffff16565b8073ffffffffffffffffffffffffffffffffffffffff167fa5e0f060af304ab17dd418c7927e3da3ae7868189bf387aee09ab179ccc572f260405160405180910390a250565b61395b8160036139fb90919063ffffffff16565b8073ffffffffffffffffffffffffffffffffffffffff167f71ae26cad02663e3d92efd6ec56031a80d74a20c0ab4183faa8bf262261c9baa60405160405180910390a250565b6139b5816003613b3f90919063ffffffff16565b8073ffffffffffffffffffffffffffffffffffffffff167fdb7176e79cffef81cb01767dd0447a0b24bb72ca9778d4b245581086b2a7e6db60405160405180910390a250565b600073ffffffffffffffffffffffffffffffffffffffff168173ffffffffffffffffffffffffffffffffffffffff161415613a81576040517f08c379a0000000000000000000000000000000000000000000000000000000008152600401808060200182810382526031815260200180613d6b6031913960400191505060405180910390fd5b613a8b82826136a7565b15613ae1576040517f08c379a0000000000000000000000000000000000000000000000000000000008152600401808060200182810382526040815260200180613e6e6040913960400191505060405180910390fd5b60018260000160008373ffffffffffffffffffffffffffffffffffffffff1673ffffffffffffffffffffffffffffffffffffffff16815260200190815260200160002060006101000a81548160ff0219169083151502179055505050565b600073ffffffffffffffffffffffffffffffffffffffff168173ffffffffffffffffffffffffffffffffffffffff161415613bc5576040517f08c379a0000000000000000000000000000000000000000000000000000000008152600401808060200182810382526035815260200180613d9c6035913960400191505060405180910390fd5b613bcf82826136a7565b613c24576040517f08c379a0000000000000000000000000000000000000000000000000000000008152600401808060200182810382526043815260200180613d286043913960600191505060405180910390fd5b60008260000160008373ffffffffffffffffffffffffffffffffffffffff1673ffffffffffffffffffffffffffffffffffffffff16815260200190815260200160002060006101000a81548160ff0219169083151502179055505050565b828054600181600116156101000203166002900490600052602060002090601f016020900481019282601f10613cc357805160ff1916838001178555613cf1565b82800160010185558215613cf1579182015b82811115613cf0578251825591602001919060010190613cd5565b5b509050613cfe9190613d02565b5090565b613d2491905b80821115613d20576000816000905550600101613d08565b5090565b9056fe526f6c65732e72656d6f7665203a205448455f494e54454e4445445f524f4c455f49535f414c52454144595f41535349474e45445f544f5f5448455f4143434f554e54526f6c652e616464203a205448455f4143434f554e545f43414e4e4f545f42455f5448455f5a45524f5f41444452455353526f6c65732e72656d6f7665203a205448455f4143434f554e545f43414e4e4f545f42455f5448455f5a45524f5f4144445245535343414c4c45525f444f45535f4e4f545f484156455f434f4e53554d45525f524f4c454e45575f4f574e45525f43414e4e4f545f42455f5448455f5a45524f5f4144445245535343414c4c45525f444f45535f4e4f545f484156455f4449535452494255544f525f524f4c45526f6c65732e686173203a205448455f4143434f554e545f43414e4e4f545f42455f5448455f5a45524f5f41444452455353526f6c65732e616464203a205448455f494e54454e4445445f524f4c455f49535f414c52454144595f41535349474e45445f544f5f5448455f4143434f554e5443414c4c45525f444f45535f4e4f545f484156455f52455441494c45525f524f4c45a26469706673582212203a2dda1decb2aa3dee084e6e91f16035d7ee21b1b87028329099bb82299a3c0a64736f6c63430006000033526f6c652e616464203a205448455f4143434f554e545f43414e4e4f545f42455f5448455f5a45524f5f41444452455353526f6c65732e686173203a205448455f4143434f554e545f43414e4e4f545f42455f5448455f5a45524f5f41444452455353526f6c65732e616464203a205448455f494e54454e4445445f524f4c455f49535f414c52454144595f41535349474e45445f544f5f5448455f4143434f554e54",
  "source": "// SPDX-License-Identifier: MIT\r\n\r\npragma solidity ^0.6.0;\r\n\r\nimport \"./Item.sol\";\r\nimport \"../access/FarmerRole.sol\";\r\nimport \"../access/DistributorRole.sol\";\r\nimport \"../access/RetailerRole.sol\";\r\nimport \"../access/ConsumerRole.sol\";\r\nimport \"../core/Ownable.sol\";\r\n\r\ncontract SupplyChain is\r\n    Item,\r\n    FarmerRole,\r\n    DistributorRole,\r\n    RetailerRole,\r\n    ConsumerRole,\r\n    Ownable\r\n{\r\n    uint256 upc;\r\n    uint256 sku;\r\n\r\n    mapping(uint256 => string[]) itemsHistory;\r\n\r\n    modifier onlyItemOwner(uint256 _upc) {\r\n        require(\r\n            msg.sender == items[_upc].ownerID,\r\n            \"CALLER_IS_NOT_THE_ITEM_OWNER\"\r\n        );\r\n        _;\r\n    }\r\n\r\n    modifier onlyEnoughPrice(uint256 _upc) {\r\n        require(\r\n            msg.value >= items[_upc].productPrice,\r\n            \"VALUE_IS_LESS_THAN_PRICE\"\r\n        );\r\n        _;\r\n    }\r\n\r\n    modifier checkValue(uint256 _upc) {\r\n        _;\r\n        uint256 _price = items[_upc].productPrice;\r\n        uint256 amountToReturn = msg.value - _price;\r\n        address payable consumer = payable(items[_upc].consumerID);\r\n        consumer.transfer(amountToReturn);\r\n    }\r\n\r\n    constructor() public payable {\r\n        _owner = msg.sender;\r\n        sku = 1;\r\n        upc = 1;\r\n    }\r\n\r\n    function close() public onlyOwner {\r\n        selfdestruct(payable(_owner));\r\n    }\r\n\r\n    /**\r\n     * @dev Allows a Farmer to mark an item as 'Harvested'.\r\n     *\r\n     */\r\n    function harvestItem(\r\n        uint256 _upc,\r\n        address _farmerID,\r\n        string memory _farmerName,\r\n        string memory _farmerInformation,\r\n        string memory _farmerLatitude,\r\n        string memory _farmerLongitude,\r\n        string memory _productNotes\r\n    ) public onlyFarmer {\r\n        items[_upc] = Item.ItemMetadata({\r\n            sku: sku,\r\n            upc: _upc,\r\n            ownerID: _farmerID,\r\n            farmerID: _farmerID,\r\n            farmerName: _farmerName,\r\n            farmerInformation: _farmerInformation,\r\n            farmerLatitude: _farmerLatitude,\r\n            farmerLongitude: _farmerLongitude,\r\n            productID: sku + _upc,\r\n            productNotes: _productNotes,\r\n            productPrice: 0,\r\n            itemState: State.Harvested,\r\n            distributorID: address(0),\r\n            retailerID: address(0),\r\n            consumerID: address(0)\r\n        });\r\n\r\n        sku = sku + 1;\r\n        emit Harvested(_upc);\r\n    }\r\n\r\n    /**\r\n     * @dev Allows a Farmer and Item Owner to mark an Item as 'Processed'.\r\n     */\r\n    function processItem(uint256 _upc)\r\n        public\r\n        onlyFarmer\r\n        onlyItemOwner(_upc)\r\n        onlyHarvested(_upc)\r\n    {\r\n        items[_upc].itemState = State.Processed;\r\n        emit Processed(_upc);\r\n    }\r\n\r\n    /**\r\n     * @dev Allows a Farmer and Item Owner to mark an Item as 'Packed'.\r\n     */\r\n    function packItem(uint256 _upc)\r\n        public\r\n        onlyFarmer\r\n        onlyItemOwner(_upc)\r\n        onlyProcessed(_upc)\r\n    {\r\n        items[_upc].itemState = State.Packed;\r\n        emit Packed(_upc);\r\n    }\r\n\r\n    /**\r\n     * @dev Allows a Farmer and Item Owner to mark an Item 'ForSale'.\r\n     */\r\n    function sellItem(uint256 _upc, uint256 _price)\r\n        public\r\n        onlyFarmer\r\n        onlyItemOwner(_upc)\r\n        onlyPacked(_upc)\r\n    {\r\n        items[_upc].productPrice = _price;\r\n        items[_upc].itemState = State.ForSale;\r\n        emit ForSale(_upc);\r\n    }\r\n\r\n    /**\r\n     * @dev Allows a Distributor to mark an Item as 'Sold'.\r\n     */\r\n    function buyItem(uint256 _upc)\r\n        public\r\n        payable\r\n        onlyDistributor\r\n        onlyEnoughPrice(_upc)\r\n        checkValue(_upc)\r\n        onlyForSale(_upc)\r\n    {\r\n        items[_upc].ownerID = msg.sender;\r\n        items[_upc].distributorID = msg.sender;\r\n        items[_upc].itemState = State.Sold;\r\n\r\n        address payable farmer = payable(items[_upc].farmerID);\r\n        farmer.transfer(items[_upc].productPrice);\r\n\r\n        emit Sold(_upc);\r\n    }\r\n\r\n    /**\r\n     * @dev Allows a Distributor and Item Owner to mark an Item as 'Shipped'.\r\n     */\r\n    function shipItem(uint256 _upc)\r\n        public\r\n        onlyDistributor\r\n        onlyItemOwner(_upc)\r\n        onlySold(_upc)\r\n    {\r\n        items[_upc].itemState = State.Shipped;\r\n        emit Shipped(_upc);\r\n    }\r\n\r\n    /**\r\n     * @dev Allows a Retailer to mark an Item as 'Received'.\r\n     */\r\n    function receiveItem(uint256 _upc) public onlyRetailer onlyShipped(_upc) {\r\n        items[_upc].ownerID = msg.sender;\r\n        items[_upc].retailerID = msg.sender;\r\n        items[_upc].itemState = State.Received;\r\n        emit Received(_upc);\r\n    }\r\n\r\n    /**\r\n     * @dev Allows a Consumer to mark an Item as 'Purchased'.\r\n     */\r\n    function purchaseItem(uint256 _upc) public onlyConsumer onlyReceived(_upc) {\r\n        items[_upc].ownerID = msg.sender;\r\n        items[_upc].consumerID = msg.sender;\r\n        items[_upc].itemState = State.Purchased;\r\n        emit Purchased(_upc);\r\n    }\r\n\r\n    // Getters\r\n    function getItemState(uint256 _upc) public view returns (uint256) {\r\n        return uint256(items[_upc].itemState);\r\n    }\r\n\r\n    function getItemPrice(uint256 _upc) public view returns (uint256) {\r\n        return items[_upc].productPrice;\r\n    }\r\n\r\n    function getItemOwner(uint256 _upc) public view returns (address) {\r\n        return items[_upc].ownerID;\r\n    }\r\n\r\n    function getItemFarmer(uint256 _upc) public view returns (address) {\r\n        return items[_upc].farmerID;\r\n    }\r\n\r\n    function getItemDistributor(uint256 _upc) public view returns (address) {\r\n        return items[_upc].distributorID;\r\n    }\r\n\r\n    function getItemRetailer(uint256 _upc) public view returns (address) {\r\n        return items[_upc].retailerID;\r\n    }\r\n\r\n    function getItemConsumer(uint256 _upc) public view returns (address) {\r\n        return items[_upc].consumerID;\r\n    }\r\n\r\n    /**\r\n     * @dev Fetches the first part of the Item data.\r\n     */\r\n    function fetchItemBufferOne(uint256 _upc)\r\n        public\r\n        view\r\n        returns (\r\n            uint256 itemSKU,\r\n            uint256 itemUPC,\r\n            address ownerID,\r\n            address farmerID,\r\n            string memory farmerName,\r\n            string memory farmerInformation,\r\n            string memory farmerLatitude,\r\n            string memory farmerLongitude\r\n        )\r\n    {\r\n        itemSKU = items[_upc].sku;\r\n        itemUPC = items[_upc].upc;\r\n        ownerID = items[_upc].ownerID;\r\n        farmerID = items[_upc].farmerID;\r\n        farmerName = items[_upc].farmerName;\r\n        farmerInformation = items[_upc].farmerInformation;\r\n        farmerLatitude = items[_upc].farmerLatitude;\r\n        farmerLongitude = items[_upc].farmerLongitude;\r\n\r\n        return (\r\n            itemSKU,\r\n            itemUPC,\r\n            ownerID,\r\n            farmerID,\r\n            farmerName,\r\n            farmerInformation,\r\n            farmerLatitude,\r\n            farmerLongitude\r\n        );\r\n    }\r\n\r\n    /**\r\n     * @dev Fetches the second part of the Item data.\r\n     */\r\n    function fetchItemBufferTwo(uint256 _upc)\r\n        public\r\n        view\r\n        returns (\r\n            uint256 itemSKU,\r\n            uint256 itemUPC,\r\n            uint256 productID,\r\n            string memory productNotes,\r\n            uint256 productPrice,\r\n            uint256 itemState,\r\n            address distributorID,\r\n            address retailerID,\r\n            address consumerID\r\n        )\r\n    {\r\n        itemSKU = items[_upc].sku;\r\n        itemUPC = items[_upc].upc;\r\n        productID = items[_upc].productID;\r\n        productNotes = items[_upc].productNotes;\r\n        productPrice = items[_upc].productPrice;\r\n        itemState = uint256(items[_upc].itemState);\r\n        distributorID = items[_upc].distributorID;\r\n        retailerID = items[_upc].retailerID;\r\n        consumerID = items[_upc].consumerID;\r\n\r\n        return (\r\n            itemSKU,\r\n            itemUPC,\r\n            productID,\r\n            productNotes,\r\n            productPrice,\r\n            itemState,\r\n            distributorID,\r\n            retailerID,\r\n            consumerID\r\n        );\r\n    }\r\n}\r\n",
  "sourcePath": "C:\\Users\\Diego\\dev\\blockchain\\eth-supply-chain\\contracts\\base\\SupplyChain.sol",
  "compiler": {
    "name": "solc",
    "version": "0.6.0+commit.26b70077.Emscripten.clang"
  },
  "schemaVersion": "3.2.0",
  "updatedAt": "2020-06-27T22:21:49.484Z",
  "networkType": "ethereum",
  "devdoc": {
    "methods": {
      "buyItem(uint256)": {
        "details": "Allows a Distributor to mark an Item as 'Sold'."
      },
      "fetchItemBufferOne(uint256)": {
        "details": "Fetches the first part of the Item data."
      },
      "fetchItemBufferTwo(uint256)": {
        "details": "Fetches the second part of the Item data."
      },
      "harvestItem(uint256,address,string,string,string,string,string)": {
        "details": "Allows a Farmer to mark an item as 'Harvested'.      "
      },
      "owner()": {
        "details": "Returns the address of the current owner."
      },
      "packItem(uint256)": {
        "details": "Allows a Farmer and Item Owner to mark an Item as 'Packed'."
      },
      "processItem(uint256)": {
        "details": "Allows a Farmer and Item Owner to mark an Item as 'Processed'."
      },
      "purchaseItem(uint256)": {
        "details": "Allows a Consumer to mark an Item as 'Purchased'."
      },
      "receiveItem(uint256)": {
        "details": "Allows a Retailer to mark an Item as 'Received'."
      },
      "renounceOwnership()": {
        "details": "Leaves the contract without owner. It will not be possible to call `onlyOwner` functions anymore. Can only be called by the current owner.      * NOTE: Renouncing ownership will leave the contract without an owner, thereby removing any functionality that is only available to the owner."
      },
      "sellItem(uint256,uint256)": {
        "details": "Allows a Farmer and Item Owner to mark an Item 'ForSale'."
      },
      "shipItem(uint256)": {
        "details": "Allows a Distributor and Item Owner to mark an Item as 'Shipped'."
      },
      "transferOwnership(address)": {
        "details": "Transfers ownership of the contract to a new account (`newOwner`). Can only be called by the current owner."
      }
    }
  },
  "userdoc": {
    "methods": {}
  }
}